{"abi":[{"type":"constructor","inputs":[{"name":"_usdt","type":"address","internalType":"address"},{"name":"_ubtc","type":"address","internalType":"address"},{"name":"_hyperSwap","type":"address","internalType":"address"}],"stateMutability":"nonpayable"},{"type":"function","name":"UBTC","inputs":[],"outputs":[{"name":"","type":"address","internalType":"contract IERC20"}],"stateMutability":"view"},{"type":"function","name":"USDT","inputs":[],"outputs":[{"name":"","type":"address","internalType":"contract IERC20"}],"stateMutability":"view"},{"type":"function","name":"getUserAllowance","inputs":[{"name":"user","type":"address","internalType":"address"}],"outputs":[{"name":"","type":"uint256","internalType":"uint256"}],"stateMutability":"view"},{"type":"function","name":"hyperSwap","inputs":[],"outputs":[{"name":"","type":"address","internalType":"contract IHyperSwap"}],"stateMutability":"view"},{"type":"function","name":"owner","inputs":[],"outputs":[{"name":"","type":"address","internalType":"address"}],"stateMutability":"view"},{"type":"function","name":"renounceOwnership","inputs":[],"outputs":[],"stateMutability":"nonpayable"},{"type":"function","name":"swapUSDTtoUBTC","inputs":[{"name":"user","type":"address","internalType":"address"},{"name":"amount","type":"uint256","internalType":"uint256"}],"outputs":[],"stateMutability":"nonpayable"},{"type":"function","name":"transferOwnership","inputs":[{"name":"newOwner","type":"address","internalType":"address"}],"outputs":[],"stateMutability":"nonpayable"},{"type":"event","name":"OwnershipTransferred","inputs":[{"name":"previousOwner","type":"address","indexed":true,"internalType":"address"},{"name":"newOwner","type":"address","indexed":true,"internalType":"address"}],"anonymous":false},{"type":"event","name":"UBTCStrategyExecuted","inputs":[{"name":"user","type":"address","indexed":true,"internalType":"address"},{"name":"usdtAmount","type":"uint256","indexed":false,"internalType":"uint256"},{"name":"ubtcReceived","type":"uint256","indexed":false,"internalType":"uint256"},{"name":"timestamp","type":"uint256","indexed":false,"internalType":"uint256"}],"anonymous":false},{"type":"error","name":"InsufficientApproval","inputs":[]},{"type":"error","name":"OwnableInvalidOwner","inputs":[{"name":"owner","type":"address","internalType":"address"}]},{"type":"error","name":"OwnableUnauthorizedAccount","inputs":[{"name":"account","type":"address","internalType":"address"}]},{"type":"error","name":"ReentrancyGuardReentrantCall","inputs":[]},{"type":"error","name":"SwapFailed","inputs":[]},{"type":"error","name":"TransferFailed","inputs":[]}],"bytecode":{"object":"0x60e060405234801561000f575f5ffd5b506040516114583803806114588339818101604052810190610031919061027e565b3360015f819055505f73ffffffffffffffffffffffffffffffffffffffff168173ffffffffffffffffffffffffffffffffffffffff16036100a9575f6040517f1e4fbdf70000000000000000000000000000000000000000000000000000000081526004016100a091906102dd565b60405180910390fd5b6100b88161015d60201b60201c565b508273ffffffffffffffffffffffffffffffffffffffff1660808173ffffffffffffffffffffffffffffffffffffffff16815250508173ffffffffffffffffffffffffffffffffffffffff1660a08173ffffffffffffffffffffffffffffffffffffffff16815250508073ffffffffffffffffffffffffffffffffffffffff1660c08173ffffffffffffffffffffffffffffffffffffffff16815250505050506102f6565b5f60015f9054906101000a900473ffffffffffffffffffffffffffffffffffffffff1690508160015f6101000a81548173ffffffffffffffffffffffffffffffffffffffff021916908373ffffffffffffffffffffffffffffffffffffffff1602179055508173ffffffffffffffffffffffffffffffffffffffff168173ffffffffffffffffffffffffffffffffffffffff167f8be0079c531659141344cd1fd0a4f28419497f9722a3daafe3b4186f6b6457e060405160405180910390a35050565b5f5ffd5b5f73ffffffffffffffffffffffffffffffffffffffff82169050919050565b5f61024d82610224565b9050919050565b61025d81610243565b8114610267575f5ffd5b50565b5f8151905061027881610254565b92915050565b5f5f5f6060848603121561029557610294610220565b5b5f6102a28682870161026a565b93505060206102b38682870161026a565b92505060406102c48682870161026a565b9150509250925092565b6102d781610243565b82525050565b5f6020820190506102f05f8301846102ce565b92915050565b60805160a05160c0516111006103585f395f818161021801528181610491015261063c01525f818161024f01526105cc01525f8181610177015281816102ac0152818161037f015281816104550152818161055e01526107bf01526111005ff3fe608060405234801561000f575f5ffd5b5060043610610086575f3560e01c80638da5cb5b116100595780638da5cb5b14610100578063a9cedb1a1461011e578063c54e44eb1461013a578063f2fde38b1461015857610086565b80630c6ddc0d1461008a57806358bb45ae146100ba578063715018a6146100d857806386d4c423146100e2575b5f5ffd5b6100a4600480360381019061009f9190610a6e565b610174565b6040516100b19190610ab1565b60405180910390f35b6100c2610216565b6040516100cf9190610b25565b60405180910390f35b6100e061023a565b005b6100ea61024d565b6040516100f79190610b5e565b60405180910390f35b610108610271565b6040516101159190610b86565b60405180910390f35b61013860048036038101906101339190610bc9565b610299565b005b6101426107bd565b60405161014f9190610b5e565b60405180910390f35b610172600480360381019061016d9190610a6e565b6107e1565b005b5f7f000000000000000000000000000000000000000000000000000000000000000073ffffffffffffffffffffffffffffffffffffffff1663dd62ed3e83306040518363ffffffff1660e01b81526004016101d0929190610c07565b602060405180830381865afa1580156101eb573d5f5f3e3d5ffd5b505050506040513d601f19601f8201168201806040525081019061020f9190610c42565b9050919050565b7f000000000000000000000000000000000000000000000000000000000000000081565b610242610865565b61024b5f6108ec565b565b7f000000000000000000000000000000000000000000000000000000000000000081565b5f60015f9054906101000a900473ffffffffffffffffffffffffffffffffffffffff16905090565b6102a16109af565b6102a9610865565b807f000000000000000000000000000000000000000000000000000000000000000073ffffffffffffffffffffffffffffffffffffffff1663dd62ed3e84306040518363ffffffff1660e01b8152600401610305929190610c07565b602060405180830381865afa158015610320573d5f5f3e3d5ffd5b505050506040513d601f19601f820116820180604052508101906103449190610c42565b101561037c576040517f3f726eac00000000000000000000000000000000000000000000000000000000815260040160405180910390fd5b5f7f000000000000000000000000000000000000000000000000000000000000000073ffffffffffffffffffffffffffffffffffffffff166323b872dd8430856040518463ffffffff1660e01b81526004016103da93929190610c6d565b6020604051808303815f875af11580156103f6573d5f5f3e3d5ffd5b505050506040513d601f19601f8201168201806040525081019061041a9190610cd7565b905080610453576040517f90b8ec1800000000000000000000000000000000000000000000000000000000815260040160405180910390fd5b7f000000000000000000000000000000000000000000000000000000000000000073ffffffffffffffffffffffffffffffffffffffff1663095ea7b37f0000000000000000000000000000000000000000000000000000000000000000846040518363ffffffff1660e01b81526004016104ce929190610d02565b6020604051808303815f875af11580156104ea573d5f5f3e3d5ffd5b505050506040513d601f19601f8201168201806040525081019061050e9190610cd7565b505f600267ffffffffffffffff81111561052b5761052a610d29565b5b6040519080825280602002602001820160405280156105595781602001602082028036833780820191505090505b5090507f0000000000000000000000000000000000000000000000000000000000000000815f815181106105905761058f610d56565b5b602002602001019073ffffffffffffffffffffffffffffffffffffffff16908173ffffffffffffffffffffffffffffffffffffffff16815250507f0000000000000000000000000000000000000000000000000000000000000000816001815181106105ff576105fe610d56565b5b602002602001019073ffffffffffffffffffffffffffffffffffffffff16908173ffffffffffffffffffffffffffffffffffffffff16815250505f7f000000000000000000000000000000000000000000000000000000000000000073ffffffffffffffffffffffffffffffffffffffff166338ed1739855f858961012c426106889190610db0565b6040518663ffffffff1660e01b81526004016106a8959493929190610ed3565b5f604051808303815f875af11580156106c3573d5f5f3e3d5ffd5b505050506040513d5f823e3d601f19601f820116820180604052508101906106eb919061104e565b90505f8160018151811061070257610701610d56565b5b602002602001015103610741576040517f81ceff3000000000000000000000000000000000000000000000000000000000815260040160405180910390fd5b8473ffffffffffffffffffffffffffffffffffffffff167f630869cc90f628f505bfb160d98d5eddd816e6c5ecc8ec138d47276eb6caf793858360018151811061078e5761078d610d56565b5b6020026020010151426040516107a693929190611095565b60405180910390a25050506107b96109f3565b5050565b7f000000000000000000000000000000000000000000000000000000000000000081565b6107e9610865565b5f73ffffffffffffffffffffffffffffffffffffffff168173ffffffffffffffffffffffffffffffffffffffff1603610859575f6040517f1e4fbdf70000000000000000000000000000000000000000000000000000000081526004016108509190610b86565b60405180910390fd5b610862816108ec565b50565b61086d6109fc565b73ffffffffffffffffffffffffffffffffffffffff1661088b610271565b73ffffffffffffffffffffffffffffffffffffffff16146108ea576108ae6109fc565b6040517f118cdaa70000000000000000000000000000000000000000000000000000000081526004016108e19190610b86565b60405180910390fd5b565b5f60015f9054906101000a900473ffffffffffffffffffffffffffffffffffffffff1690508160015f6101000a81548173ffffffffffffffffffffffffffffffffffffffff021916908373ffffffffffffffffffffffffffffffffffffffff1602179055508173ffffffffffffffffffffffffffffffffffffffff168173ffffffffffffffffffffffffffffffffffffffff167f8be0079c531659141344cd1fd0a4f28419497f9722a3daafe3b4186f6b6457e060405160405180910390a35050565b60025f54036109ea576040517f3ee5aeb500000000000000000000000000000000000000000000000000000000815260040160405180910390fd5b60025f81905550565b60015f81905550565b5f33905090565b5f604051905090565b5f5ffd5b5f5ffd5b5f73ffffffffffffffffffffffffffffffffffffffff82169050919050565b5f610a3d82610a14565b9050919050565b610a4d81610a33565b8114610a57575f5ffd5b50565b5f81359050610a6881610a44565b92915050565b5f60208284031215610a8357610a82610a0c565b5b5f610a9084828501610a5a565b91505092915050565b5f819050919050565b610aab81610a99565b82525050565b5f602082019050610ac45f830184610aa2565b92915050565b5f819050919050565b5f610aed610ae8610ae384610a14565b610aca565b610a14565b9050919050565b5f610afe82610ad3565b9050919050565b5f610b0f82610af4565b9050919050565b610b1f81610b05565b82525050565b5f602082019050610b385f830184610b16565b92915050565b5f610b4882610af4565b9050919050565b610b5881610b3e565b82525050565b5f602082019050610b715f830184610b4f565b92915050565b610b8081610a33565b82525050565b5f602082019050610b995f830184610b77565b92915050565b610ba881610a99565b8114610bb2575f5ffd5b50565b5f81359050610bc381610b9f565b92915050565b5f5f60408385031215610bdf57610bde610a0c565b5b5f610bec85828601610a5a565b9250506020610bfd85828601610bb5565b9150509250929050565b5f604082019050610c1a5f830185610b77565b610c276020830184610b77565b9392505050565b5f81519050610c3c81610b9f565b92915050565b5f60208284031215610c5757610c56610a0c565b5b5f610c6484828501610c2e565b91505092915050565b5f606082019050610c805f830186610b77565b610c8d6020830185610b77565b610c9a6040830184610aa2565b949350505050565b5f8115159050919050565b610cb681610ca2565b8114610cc0575f5ffd5b50565b5f81519050610cd181610cad565b92915050565b5f60208284031215610cec57610ceb610a0c565b5b5f610cf984828501610cc3565b91505092915050565b5f604082019050610d155f830185610b77565b610d226020830184610aa2565b9392505050565b7f4e487b71000000000000000000000000000000000000000000000000000000005f52604160045260245ffd5b7f4e487b71000000000000000000000000000000000000000000000000000000005f52603260045260245ffd5b7f4e487b71000000000000000000000000000000000000000000000000000000005f52601160045260245ffd5b5f610dba82610a99565b9150610dc583610a99565b9250828201905080821115610ddd57610ddc610d83565b5b92915050565b5f819050919050565b5f610e06610e01610dfc84610de3565b610aca565b610a99565b9050919050565b610e1681610dec565b82525050565b5f81519050919050565b5f82825260208201905092915050565b5f819050602082019050919050565b610e4e81610a33565b82525050565b5f610e5f8383610e45565b60208301905092915050565b5f602082019050919050565b5f610e8182610e1c565b610e8b8185610e26565b9350610e9683610e36565b805f5b83811015610ec6578151610ead8882610e54565b9750610eb883610e6b565b925050600181019050610e99565b5085935050505092915050565b5f60a082019050610ee65f830188610aa2565b610ef36020830187610e0d565b8181036040830152610f058186610e77565b9050610f146060830185610b77565b610f216080830184610aa2565b9695505050505050565b5f5ffd5b5f601f19601f8301169050919050565b610f4882610f2f565b810181811067ffffffffffffffff82111715610f6757610f66610d29565b5b80604052505050565b5f610f79610a03565b9050610f858282610f3f565b919050565b5f67ffffffffffffffff821115610fa457610fa3610d29565b5b602082029050602081019050919050565b5f5ffd5b5f610fcb610fc684610f8a565b610f70565b90508083825260208201905060208402830185811115610fee57610fed610fb5565b5b835b8181101561101757806110038882610c2e565b845260208401935050602081019050610ff0565b5050509392505050565b5f82601f83011261103557611034610f2b565b5b8151611045848260208601610fb9565b91505092915050565b5f6020828403121561106357611062610a0c565b5b5f82015167ffffffffffffffff8111156110805761107f610a10565b5b61108c84828501611021565b91505092915050565b5f6060820190506110a85f830186610aa2565b6110b56020830185610aa2565b6110c26040830184610aa2565b94935050505056fea26469706673582212205364de579d4dac43c1766225ec4cc6e0c4e55b9f7429068102b711f1abcdfd9d64736f6c634300081c0033","linkReferences":{}},"methodIdentifiers":{"UBTC()":"86d4c423","USDT()":"c54e44eb","getUserAllowance(address)":"0c6ddc0d","hyperSwap()":"58bb45ae","owner()":"8da5cb5b","renounceOwnership()":"715018a6","swapUSDTtoUBTC(address,uint256)":"a9cedb1a","transferOwnership(address)":"f2fde38b"},"id":29}