{"abi":[{"type":"constructor","inputs":[{"name":"_usdt","type":"address","internalType":"address"},{"name":"_ubtc","type":"address","internalType":"address"},{"name":"_hyperSwap","type":"address","internalType":"address"}],"stateMutability":"nonpayable"},{"type":"function","name":"UBTC","inputs":[],"outputs":[{"name":"","type":"address","internalType":"contract IERC20"}],"stateMutability":"view"},{"type":"function","name":"USDT","inputs":[],"outputs":[{"name":"","type":"address","internalType":"contract IERC20"}],"stateMutability":"view"},{"type":"function","name":"getUserAllowance","inputs":[{"name":"user","type":"address","internalType":"address"}],"outputs":[{"name":"","type":"uint256","internalType":"uint256"}],"stateMutability":"view"},{"type":"function","name":"hyperSwap","inputs":[],"outputs":[{"name":"","type":"address","internalType":"contract IHyperSwapV3"}],"stateMutability":"view"},{"type":"function","name":"owner","inputs":[],"outputs":[{"name":"","type":"address","internalType":"address"}],"stateMutability":"view"},{"type":"function","name":"poolFee","inputs":[],"outputs":[{"name":"","type":"uint24","internalType":"uint24"}],"stateMutability":"view"},{"type":"function","name":"renounceOwnership","inputs":[],"outputs":[],"stateMutability":"nonpayable"},{"type":"function","name":"swapUSDTtoUBTC","inputs":[{"name":"user","type":"address","internalType":"address"},{"name":"amount","type":"uint256","internalType":"uint256"},{"name":"amountOutMinimum","type":"uint256","internalType":"uint256"},{"name":"sqrtPriceLimitX96","type":"uint160","internalType":"uint160"}],"outputs":[],"stateMutability":"nonpayable"},{"type":"function","name":"transferOwnership","inputs":[{"name":"newOwner","type":"address","internalType":"address"}],"outputs":[],"stateMutability":"nonpayable"},{"type":"event","name":"OwnershipTransferred","inputs":[{"name":"previousOwner","type":"address","indexed":true,"internalType":"address"},{"name":"newOwner","type":"address","indexed":true,"internalType":"address"}],"anonymous":false},{"type":"event","name":"UBTCStrategyExecuted","inputs":[{"name":"user","type":"address","indexed":true,"internalType":"address"},{"name":"usdtAmount","type":"uint256","indexed":false,"internalType":"uint256"},{"name":"ubtcReceived","type":"uint256","indexed":false,"internalType":"uint256"},{"name":"timestamp","type":"uint256","indexed":false,"internalType":"uint256"}],"anonymous":false},{"type":"error","name":"InsufficientApproval","inputs":[]},{"type":"error","name":"OwnableInvalidOwner","inputs":[{"name":"owner","type":"address","internalType":"address"}]},{"type":"error","name":"OwnableUnauthorizedAccount","inputs":[{"name":"account","type":"address","internalType":"address"}]},{"type":"error","name":"ReentrancyGuardReentrantCall","inputs":[]},{"type":"error","name":"SwapFailed","inputs":[]},{"type":"error","name":"TransferFailed","inputs":[]}],"bytecode":{"object":"0x60e060405234801561000f575f5ffd5b5060405161125d38038061125d8339818101604052810190610031919061027e565b3360015f819055505f73ffffffffffffffffffffffffffffffffffffffff168173ffffffffffffffffffffffffffffffffffffffff16036100a9575f6040517f1e4fbdf70000000000000000000000000000000000000000000000000000000081526004016100a091906102dd565b60405180910390fd5b6100b88161015d60201b60201c565b508273ffffffffffffffffffffffffffffffffffffffff1660808173ffffffffffffffffffffffffffffffffffffffff16815250508173ffffffffffffffffffffffffffffffffffffffff1660a08173ffffffffffffffffffffffffffffffffffffffff16815250508073ffffffffffffffffffffffffffffffffffffffff1660c08173ffffffffffffffffffffffffffffffffffffffff16815250505050506102f6565b5f60015f9054906101000a900473ffffffffffffffffffffffffffffffffffffffff1690508160015f6101000a81548173ffffffffffffffffffffffffffffffffffffffff021916908373ffffffffffffffffffffffffffffffffffffffff1602179055508173ffffffffffffffffffffffffffffffffffffffff168173ffffffffffffffffffffffffffffffffffffffff167f8be0079c531659141344cd1fd0a4f28419497f9722a3daafe3b4186f6b6457e060405160405180910390a35050565b5f5ffd5b5f73ffffffffffffffffffffffffffffffffffffffff82169050919050565b5f61024d82610224565b9050919050565b61025d81610243565b8114610267575f5ffd5b50565b5f8151905061027881610254565b92915050565b5f5f5f6060848603121561029557610294610220565b5b5f6102a28682870161026a565b93505060206102b38682870161026a565b92505060406102c48682870161026a565b9150509250925092565b6102d781610243565b82525050565b5f6020820190506102f05f8301846102ce565b92915050565b60805160a05160c051610f056103585f395f81816102470152818161046101526105cb01525f818161052a015261071501525f81816101a60152818161027c0152818161034f01528181610425015281816104ee01526107610152610f055ff3fe608060405234801561000f575f5ffd5b5060043610610091575f3560e01c8063715018a611610064578063715018a61461011d57806386d4c423146101275780638da5cb5b14610145578063c54e44eb14610163578063f2fde38b1461018157610091565b8063089fe6aa146100955780630c6ddc0d146100b357806358bb45ae146100e35780637031c8f414610101575b5f5ffd5b61009d61019d565b6040516100aa91906109c2565b60405180910390f35b6100cd60048036038101906100c89190610a39565b6101a3565b6040516100da9190610a7c565b60405180910390f35b6100eb610245565b6040516100f89190610af0565b60405180910390f35b61011b60048036038101906101169190610b5d565b610269565b005b610125610700565b005b61012f610713565b60405161013c9190610be1565b60405180910390f35b61014d610737565b60405161015a9190610c09565b60405180910390f35b61016b61075f565b6040516101789190610be1565b60405180910390f35b61019b60048036038101906101969190610a39565b610783565b005b610bb881565b5f7f000000000000000000000000000000000000000000000000000000000000000073ffffffffffffffffffffffffffffffffffffffff1663dd62ed3e83306040518363ffffffff1660e01b81526004016101ff929190610c22565b602060405180830381865afa15801561021a573d5f5f3e3d5ffd5b505050506040513d601f19601f8201168201806040525081019061023e9190610c5d565b9050919050565b7f000000000000000000000000000000000000000000000000000000000000000081565b610271610807565b61027961084b565b827f000000000000000000000000000000000000000000000000000000000000000073ffffffffffffffffffffffffffffffffffffffff1663dd62ed3e86306040518363ffffffff1660e01b81526004016102d5929190610c22565b602060405180830381865afa1580156102f0573d5f5f3e3d5ffd5b505050506040513d601f19601f820116820180604052508101906103149190610c5d565b101561034c576040517f3f726eac00000000000000000000000000000000000000000000000000000000815260040160405180910390fd5b5f7f000000000000000000000000000000000000000000000000000000000000000073ffffffffffffffffffffffffffffffffffffffff166323b872dd8630876040518463ffffffff1660e01b81526004016103aa93929190610c88565b6020604051808303815f875af11580156103c6573d5f5f3e3d5ffd5b505050506040513d601f19601f820116820180604052508101906103ea9190610cf2565b905080610423576040517f90b8ec1800000000000000000000000000000000000000000000000000000000815260040160405180910390fd5b7f000000000000000000000000000000000000000000000000000000000000000073ffffffffffffffffffffffffffffffffffffffff1663095ea7b37f0000000000000000000000000000000000000000000000000000000000000000866040518363ffffffff1660e01b815260040161049e929190610d1d565b6020604051808303815f875af11580156104ba573d5f5f3e3d5ffd5b505050506040513d601f19601f820116820180604052508101906104de9190610cf2565b505f6040518061010001604052807f000000000000000000000000000000000000000000000000000000000000000073ffffffffffffffffffffffffffffffffffffffff1681526020017f000000000000000000000000000000000000000000000000000000000000000073ffffffffffffffffffffffffffffffffffffffff168152602001610bb862ffffff1681526020018773ffffffffffffffffffffffffffffffffffffffff16815260200161012c4261059b9190610d71565b81526020018681526020018581526020018473ffffffffffffffffffffffffffffffffffffffff1681525090505f7f000000000000000000000000000000000000000000000000000000000000000073ffffffffffffffffffffffffffffffffffffffff1663414bf389836040518263ffffffff1660e01b81526004016106229190610e80565b6020604051808303815f875af115801561063e573d5f5f3e3d5ffd5b505050506040513d601f19601f820116820180604052508101906106629190610c5d565b90505f810361069d576040517f81ceff3000000000000000000000000000000000000000000000000000000000815260040160405180910390fd5b8673ffffffffffffffffffffffffffffffffffffffff167f630869cc90f628f505bfb160d98d5eddd816e6c5ecc8ec138d47276eb6caf7938783426040516106e793929190610e9a565b60405180910390a25050506106fa6108d2565b50505050565b61070861084b565b6107115f6108db565b565b7f000000000000000000000000000000000000000000000000000000000000000081565b5f60015f9054906101000a900473ffffffffffffffffffffffffffffffffffffffff16905090565b7f000000000000000000000000000000000000000000000000000000000000000081565b61078b61084b565b5f73ffffffffffffffffffffffffffffffffffffffff168173ffffffffffffffffffffffffffffffffffffffff16036107fb575f6040517f1e4fbdf70000000000000000000000000000000000000000000000000000000081526004016107f29190610c09565b60405180910390fd5b610804816108db565b50565b60025f5403610842576040517f3ee5aeb500000000000000000000000000000000000000000000000000000000815260040160405180910390fd5b60025f81905550565b61085361099e565b73ffffffffffffffffffffffffffffffffffffffff16610871610737565b73ffffffffffffffffffffffffffffffffffffffff16146108d05761089461099e565b6040517f118cdaa70000000000000000000000000000000000000000000000000000000081526004016108c79190610c09565b60405180910390fd5b565b60015f81905550565b5f60015f9054906101000a900473ffffffffffffffffffffffffffffffffffffffff1690508160015f6101000a81548173ffffffffffffffffffffffffffffffffffffffff021916908373ffffffffffffffffffffffffffffffffffffffff1602179055508173ffffffffffffffffffffffffffffffffffffffff168173ffffffffffffffffffffffffffffffffffffffff167f8be0079c531659141344cd1fd0a4f28419497f9722a3daafe3b4186f6b6457e060405160405180910390a35050565b5f33905090565b5f62ffffff82169050919050565b6109bc816109a5565b82525050565b5f6020820190506109d55f8301846109b3565b92915050565b5f5ffd5b5f73ffffffffffffffffffffffffffffffffffffffff82169050919050565b5f610a08826109df565b9050919050565b610a18816109fe565b8114610a22575f5ffd5b50565b5f81359050610a3381610a0f565b92915050565b5f60208284031215610a4e57610a4d6109db565b5b5f610a5b84828501610a25565b91505092915050565b5f819050919050565b610a7681610a64565b82525050565b5f602082019050610a8f5f830184610a6d565b92915050565b5f819050919050565b5f610ab8610ab3610aae846109df565b610a95565b6109df565b9050919050565b5f610ac982610a9e565b9050919050565b5f610ada82610abf565b9050919050565b610aea81610ad0565b82525050565b5f602082019050610b035f830184610ae1565b92915050565b610b1281610a64565b8114610b1c575f5ffd5b50565b5f81359050610b2d81610b09565b92915050565b610b3c816109df565b8114610b46575f5ffd5b50565b5f81359050610b5781610b33565b92915050565b5f5f5f5f60808587031215610b7557610b746109db565b5b5f610b8287828801610a25565b9450506020610b9387828801610b1f565b9350506040610ba487828801610b1f565b9250506060610bb587828801610b49565b91505092959194509250565b5f610bcb82610abf565b9050919050565b610bdb81610bc1565b82525050565b5f602082019050610bf45f830184610bd2565b92915050565b610c03816109fe565b82525050565b5f602082019050610c1c5f830184610bfa565b92915050565b5f604082019050610c355f830185610bfa565b610c426020830184610bfa565b9392505050565b5f81519050610c5781610b09565b92915050565b5f60208284031215610c7257610c716109db565b5b5f610c7f84828501610c49565b91505092915050565b5f606082019050610c9b5f830186610bfa565b610ca86020830185610bfa565b610cb56040830184610a6d565b949350505050565b5f8115159050919050565b610cd181610cbd565b8114610cdb575f5ffd5b50565b5f81519050610cec81610cc8565b92915050565b5f60208284031215610d0757610d066109db565b5b5f610d1484828501610cde565b91505092915050565b5f604082019050610d305f830185610bfa565b610d3d6020830184610a6d565b9392505050565b7f4e487b71000000000000000000000000000000000000000000000000000000005f52601160045260245ffd5b5f610d7b82610a64565b9150610d8683610a64565b9250828201905080821115610d9e57610d9d610d44565b5b92915050565b610dad816109fe565b82525050565b610dbc816109a5565b82525050565b610dcb81610a64565b82525050565b610dda816109df565b82525050565b61010082015f820151610df55f850182610da4565b506020820151610e086020850182610da4565b506040820151610e1b6040850182610db3565b506060820151610e2e6060850182610da4565b506080820151610e416080850182610dc2565b5060a0820151610e5460a0850182610dc2565b5060c0820151610e6760c0850182610dc2565b5060e0820151610e7a60e0850182610dd1565b50505050565b5f61010082019050610e945f830184610de0565b92915050565b5f606082019050610ead5f830186610a6d565b610eba6020830185610a6d565b610ec76040830184610a6d565b94935050505056fea26469706673582212205f5056ddf9d33e80ffbaf07cdccbdc18c73ed0df7fe270ba8d96eee9c772f4a764736f6c634300081c0033","linkReferences":{}},"methodIdentifiers":{"UBTC()":"86d4c423","USDT()":"c54e44eb","getUserAllowance(address)":"0c6ddc0d","hyperSwap()":"58bb45ae","owner()":"8da5cb5b","poolFee()":"089fe6aa","renounceOwnership()":"715018a6","swapUSDTtoUBTC(address,uint256,uint256,uint160)":"7031c8f4","transferOwnership(address)":"f2fde38b"},"id":20}