{"abi":[{"type":"constructor","inputs":[{"name":"_usdt","type":"address","internalType":"address"},{"name":"_whype","type":"address","internalType":"address"},{"name":"_hyperSwap","type":"address","internalType":"address"}],"stateMutability":"nonpayable"},{"type":"function","name":"USDT","inputs":[],"outputs":[{"name":"","type":"address","internalType":"contract IERC20"}],"stateMutability":"view"},{"type":"function","name":"WHYPE","inputs":[],"outputs":[{"name":"","type":"address","internalType":"contract IERC20"}],"stateMutability":"view"},{"type":"function","name":"getUserAllowance","inputs":[{"name":"user","type":"address","internalType":"address"}],"outputs":[{"name":"","type":"uint256","internalType":"uint256"}],"stateMutability":"view"},{"type":"function","name":"hyperSwap","inputs":[],"outputs":[{"name":"","type":"address","internalType":"contract IHyperSwap"}],"stateMutability":"view"},{"type":"function","name":"owner","inputs":[],"outputs":[{"name":"","type":"address","internalType":"address"}],"stateMutability":"view"},{"type":"function","name":"renounceOwnership","inputs":[],"outputs":[],"stateMutability":"nonpayable"},{"type":"function","name":"swapUSDTtoWHYPE","inputs":[{"name":"user","type":"address","internalType":"address"},{"name":"amount","type":"uint256","internalType":"uint256"}],"outputs":[],"stateMutability":"nonpayable"},{"type":"function","name":"transferOwnership","inputs":[{"name":"newOwner","type":"address","internalType":"address"}],"outputs":[],"stateMutability":"nonpayable"},{"type":"event","name":"OwnershipTransferred","inputs":[{"name":"previousOwner","type":"address","indexed":true,"internalType":"address"},{"name":"newOwner","type":"address","indexed":true,"internalType":"address"}],"anonymous":false},{"type":"event","name":"UBTCStrategyExecuted","inputs":[{"name":"user","type":"address","indexed":true,"internalType":"address"},{"name":"usdtAmount","type":"uint256","indexed":false,"internalType":"uint256"},{"name":"ubtcReceived","type":"uint256","indexed":false,"internalType":"uint256"},{"name":"timestamp","type":"uint256","indexed":false,"internalType":"uint256"}],"anonymous":false},{"type":"error","name":"InsufficientApproval","inputs":[]},{"type":"error","name":"OwnableInvalidOwner","inputs":[{"name":"owner","type":"address","internalType":"address"}]},{"type":"error","name":"OwnableUnauthorizedAccount","inputs":[{"name":"account","type":"address","internalType":"address"}]},{"type":"error","name":"ReentrancyGuardReentrantCall","inputs":[]},{"type":"error","name":"SwapFailed","inputs":[]},{"type":"error","name":"TransferFailed","inputs":[]}],"bytecode":{"object":"0x60e060405234801561000f575f5ffd5b506040516114583803806114588339818101604052810190610031919061027e565b3360015f819055505f73ffffffffffffffffffffffffffffffffffffffff168173ffffffffffffffffffffffffffffffffffffffff16036100a9575f6040517f1e4fbdf70000000000000000000000000000000000000000000000000000000081526004016100a091906102dd565b60405180910390fd5b6100b88161015d60201b60201c565b508273ffffffffffffffffffffffffffffffffffffffff1660808173ffffffffffffffffffffffffffffffffffffffff16815250508173ffffffffffffffffffffffffffffffffffffffff1660a08173ffffffffffffffffffffffffffffffffffffffff16815250508073ffffffffffffffffffffffffffffffffffffffff1660c08173ffffffffffffffffffffffffffffffffffffffff16815250505050506102f6565b5f60015f9054906101000a900473ffffffffffffffffffffffffffffffffffffffff1690508160015f6101000a81548173ffffffffffffffffffffffffffffffffffffffff021916908373ffffffffffffffffffffffffffffffffffffffff1602179055508173ffffffffffffffffffffffffffffffffffffffff168173ffffffffffffffffffffffffffffffffffffffff167f8be0079c531659141344cd1fd0a4f28419497f9722a3daafe3b4186f6b6457e060405160405180910390a35050565b5f5ffd5b5f73ffffffffffffffffffffffffffffffffffffffff82169050919050565b5f61024d82610224565b9050919050565b61025d81610243565b8114610267575f5ffd5b50565b5f8151905061027881610254565b92915050565b5f5f5f6060848603121561029557610294610220565b5b5f6102a28682870161026a565b93505060206102b38682870161026a565b92505060406102c48682870161026a565b9150509250925092565b6102d781610243565b82525050565b5f6020820190506102f05f8301846102ce565b92915050565b60805160a05160c0516111006103585f395f818161021801528181610456015261060101525f818161023c015261059101525f818161017701528181610271015281816103440152818161041a0152818161052301526107bf01526111005ff3fe608060405234801561000f575f5ffd5b5060043610610086575f3560e01c8063715018a611610059578063715018a6146101125780638da5cb5b1461011c578063c54e44eb1461013a578063f2fde38b1461015857610086565b80630c6ddc0d1461008a57806358bb45ae146100ba57806359f613a4146100d85780636e26524a146100f6575b5f5ffd5b6100a4600480360381019061009f9190610a6e565b610174565b6040516100b19190610ab1565b60405180910390f35b6100c2610216565b6040516100cf9190610b25565b60405180910390f35b6100e061023a565b6040516100ed9190610b5e565b60405180910390f35b610110600480360381019061010b9190610ba1565b61025e565b005b61011a610782565b005b610124610795565b6040516101319190610bee565b60405180910390f35b6101426107bd565b60405161014f9190610b5e565b60405180910390f35b610172600480360381019061016d9190610a6e565b6107e1565b005b5f7f000000000000000000000000000000000000000000000000000000000000000073ffffffffffffffffffffffffffffffffffffffff1663dd62ed3e83306040518363ffffffff1660e01b81526004016101d0929190610c07565b602060405180830381865afa1580156101eb573d5f5f3e3d5ffd5b505050506040513d601f19601f8201168201806040525081019061020f9190610c42565b9050919050565b7f000000000000000000000000000000000000000000000000000000000000000081565b7f000000000000000000000000000000000000000000000000000000000000000081565b610266610865565b61026e6108a9565b807f000000000000000000000000000000000000000000000000000000000000000073ffffffffffffffffffffffffffffffffffffffff1663dd62ed3e84306040518363ffffffff1660e01b81526004016102ca929190610c07565b602060405180830381865afa1580156102e5573d5f5f3e3d5ffd5b505050506040513d601f19601f820116820180604052508101906103099190610c42565b1015610341576040517f3f726eac00000000000000000000000000000000000000000000000000000000815260040160405180910390fd5b5f7f000000000000000000000000000000000000000000000000000000000000000073ffffffffffffffffffffffffffffffffffffffff166323b872dd8430856040518463ffffffff1660e01b815260040161039f93929190610c6d565b6020604051808303815f875af11580156103bb573d5f5f3e3d5ffd5b505050506040513d601f19601f820116820180604052508101906103df9190610cd7565b905080610418576040517f90b8ec1800000000000000000000000000000000000000000000000000000000815260040160405180910390fd5b7f000000000000000000000000000000000000000000000000000000000000000073ffffffffffffffffffffffffffffffffffffffff1663095ea7b37f0000000000000000000000000000000000000000000000000000000000000000846040518363ffffffff1660e01b8152600401610493929190610d02565b6020604051808303815f875af11580156104af573d5f5f3e3d5ffd5b505050506040513d601f19601f820116820180604052508101906104d39190610cd7565b505f600267ffffffffffffffff8111156104f0576104ef610d29565b5b60405190808252806020026020018201604052801561051e5781602001602082028036833780820191505090505b5090507f0000000000000000000000000000000000000000000000000000000000000000815f8151811061055557610554610d56565b5b602002602001019073ffffffffffffffffffffffffffffffffffffffff16908173ffffffffffffffffffffffffffffffffffffffff16815250507f0000000000000000000000000000000000000000000000000000000000000000816001815181106105c4576105c3610d56565b5b602002602001019073ffffffffffffffffffffffffffffffffffffffff16908173ffffffffffffffffffffffffffffffffffffffff16815250505f7f000000000000000000000000000000000000000000000000000000000000000073ffffffffffffffffffffffffffffffffffffffff166338ed1739855f858961012c4261064d9190610db0565b6040518663ffffffff1660e01b815260040161066d959493929190610ed3565b5f604051808303815f875af1158015610688573d5f5f3e3d5ffd5b505050506040513d5f823e3d601f19601f820116820180604052508101906106b0919061104e565b90505f816001815181106106c7576106c6610d56565b5b602002602001015103610706576040517f81ceff3000000000000000000000000000000000000000000000000000000000815260040160405180910390fd5b8473ffffffffffffffffffffffffffffffffffffffff167f630869cc90f628f505bfb160d98d5eddd816e6c5ecc8ec138d47276eb6caf793858360018151811061075357610752610d56565b5b60200260200101514260405161076b93929190611095565b60405180910390a250505061077e610930565b5050565b61078a6108a9565b6107935f610939565b565b5f60015f9054906101000a900473ffffffffffffffffffffffffffffffffffffffff16905090565b7f000000000000000000000000000000000000000000000000000000000000000081565b6107e96108a9565b5f73ffffffffffffffffffffffffffffffffffffffff168173ffffffffffffffffffffffffffffffffffffffff1603610859575f6040517f1e4fbdf70000000000000000000000000000000000000000000000000000000081526004016108509190610bee565b60405180910390fd5b61086281610939565b50565b60025f54036108a0576040517f3ee5aeb500000000000000000000000000000000000000000000000000000000815260040160405180910390fd5b60025f81905550565b6108b16109fc565b73ffffffffffffffffffffffffffffffffffffffff166108cf610795565b73ffffffffffffffffffffffffffffffffffffffff161461092e576108f26109fc565b6040517f118cdaa70000000000000000000000000000000000000000000000000000000081526004016109259190610bee565b60405180910390fd5b565b60015f81905550565b5f60015f9054906101000a900473ffffffffffffffffffffffffffffffffffffffff1690508160015f6101000a81548173ffffffffffffffffffffffffffffffffffffffff021916908373ffffffffffffffffffffffffffffffffffffffff1602179055508173ffffffffffffffffffffffffffffffffffffffff168173ffffffffffffffffffffffffffffffffffffffff167f8be0079c531659141344cd1fd0a4f28419497f9722a3daafe3b4186f6b6457e060405160405180910390a35050565b5f33905090565b5f604051905090565b5f5ffd5b5f5ffd5b5f73ffffffffffffffffffffffffffffffffffffffff82169050919050565b5f610a3d82610a14565b9050919050565b610a4d81610a33565b8114610a57575f5ffd5b50565b5f81359050610a6881610a44565b92915050565b5f60208284031215610a8357610a82610a0c565b5b5f610a9084828501610a5a565b91505092915050565b5f819050919050565b610aab81610a99565b82525050565b5f602082019050610ac45f830184610aa2565b92915050565b5f819050919050565b5f610aed610ae8610ae384610a14565b610aca565b610a14565b9050919050565b5f610afe82610ad3565b9050919050565b5f610b0f82610af4565b9050919050565b610b1f81610b05565b82525050565b5f602082019050610b385f830184610b16565b92915050565b5f610b4882610af4565b9050919050565b610b5881610b3e565b82525050565b5f602082019050610b715f830184610b4f565b92915050565b610b8081610a99565b8114610b8a575f5ffd5b50565b5f81359050610b9b81610b77565b92915050565b5f5f60408385031215610bb757610bb6610a0c565b5b5f610bc485828601610a5a565b9250506020610bd585828601610b8d565b9150509250929050565b610be881610a33565b82525050565b5f602082019050610c015f830184610bdf565b92915050565b5f604082019050610c1a5f830185610bdf565b610c276020830184610bdf565b9392505050565b5f81519050610c3c81610b77565b92915050565b5f60208284031215610c5757610c56610a0c565b5b5f610c6484828501610c2e565b91505092915050565b5f606082019050610c805f830186610bdf565b610c8d6020830185610bdf565b610c9a6040830184610aa2565b949350505050565b5f8115159050919050565b610cb681610ca2565b8114610cc0575f5ffd5b50565b5f81519050610cd181610cad565b92915050565b5f60208284031215610cec57610ceb610a0c565b5b5f610cf984828501610cc3565b91505092915050565b5f604082019050610d155f830185610bdf565b610d226020830184610aa2565b9392505050565b7f4e487b71000000000000000000000000000000000000000000000000000000005f52604160045260245ffd5b7f4e487b71000000000000000000000000000000000000000000000000000000005f52603260045260245ffd5b7f4e487b71000000000000000000000000000000000000000000000000000000005f52601160045260245ffd5b5f610dba82610a99565b9150610dc583610a99565b9250828201905080821115610ddd57610ddc610d83565b5b92915050565b5f819050919050565b5f610e06610e01610dfc84610de3565b610aca565b610a99565b9050919050565b610e1681610dec565b82525050565b5f81519050919050565b5f82825260208201905092915050565b5f819050602082019050919050565b610e4e81610a33565b82525050565b5f610e5f8383610e45565b60208301905092915050565b5f602082019050919050565b5f610e8182610e1c565b610e8b8185610e26565b9350610e9683610e36565b805f5b83811015610ec6578151610ead8882610e54565b9750610eb883610e6b565b925050600181019050610e99565b5085935050505092915050565b5f60a082019050610ee65f830188610aa2565b610ef36020830187610e0d565b8181036040830152610f058186610e77565b9050610f146060830185610bdf565b610f216080830184610aa2565b9695505050505050565b5f5ffd5b5f601f19601f8301169050919050565b610f4882610f2f565b810181811067ffffffffffffffff82111715610f6757610f66610d29565b5b80604052505050565b5f610f79610a03565b9050610f858282610f3f565b919050565b5f67ffffffffffffffff821115610fa457610fa3610d29565b5b602082029050602081019050919050565b5f5ffd5b5f610fcb610fc684610f8a565b610f70565b90508083825260208201905060208402830185811115610fee57610fed610fb5565b5b835b8181101561101757806110038882610c2e565b845260208401935050602081019050610ff0565b5050509392505050565b5f82601f83011261103557611034610f2b565b5b8151611045848260208601610fb9565b91505092915050565b5f6020828403121561106357611062610a0c565b5b5f82015167ffffffffffffffff8111156110805761107f610a10565b5b61108c84828501611021565b91505092915050565b5f6060820190506110a85f830186610aa2565b6110b56020830185610aa2565b6110c26040830184610aa2565b94935050505056fea26469706673582212205bc3289f9d282d19ef387672d16872d23d51ef643c9841ce3529e20ce3f8393364736f6c634300081c0033","linkReferences":{}},"methodIdentifiers":{"USDT()":"c54e44eb","WHYPE()":"59f613a4","getUserAllowance(address)":"0c6ddc0d","hyperSwap()":"58bb45ae","owner()":"8da5cb5b","renounceOwnership()":"715018a6","swapUSDTtoWHYPE(address,uint256)":"6e26524a","transferOwnership(address)":"f2fde38b"},"id":31}